:020000040800F2
:10000000000002207D1C0008C51C0008C51C00085B
:10001000C51C0008C51C0008C51C00080000000025
:10002000000000000000000000000000C51C0008E7
:10003000C51C000800000000C51C0008C51C000805
:1000400000000000000000000000000000000000B0
:1000500000000000000000000000000000000000A0
:100060000000000000000000000000000000000090
:100070000000000000000000000000000000000080
:100080000000000000000000000000000000000070
:100090000000000000000000000000000000000060
:1000A0000000000000000000000000000000000050
:1000B0000000000000000000000000000000000040
:1000C0000000000000000000000000000000000030
:1000D0000000000000000000000000000000000020
:1000E0000000000000000000000000000000000010
:1000F0000000000000000000000000000000000000
:1001000000000000000000000000000000000000EF
:1001100000000000000000000000000000000000DF
:1001200000000000000000000000000000000000CF
:1001300000000000000000000000000000000000BF
:1001400000000000000000000000000000000000AF
:10015000000000000000000000000000000000009F
:10016000000000000000000000000000000000008F
:10017000000000000000000000000000000000007F
:08018000000000000000000077
:100188000348044B834202D0034B03B1184770471E
:10019800800A0020800A0020000000000548064967
:1001A8000B1AD90F01EBA301491002D0034B03B17D
:1001B80018477047800A0020800A002000000000CD
:1001C80010B5064C237843B9FFF7DAFF044B13B197
:1001D8000448AFF300800123237010BD800A00207B
:1001E80000000000DC1C000808B5044B1BB10449E2
:1001F8000448AFF30080BDE80840CFE700000000E6
:10020800840A0020DC1C0008002301461A46184610
:1002180000F04EBB00B5094B85B01868694600F080
:1002280043FB431C06D0DDE90030DDE90212184427
:100238000844104405B05DF804FB00BF40020020EC
:10024800014B1868704700BF4002002038B5084BC2
:10025800084D5B1B9C1007D0043B1D44013C55F81E
:1002680004399847002CF9D1BDE8384001F038BD71
:10027800281D0008241D000870B50D4E0D4D761B75
:10028800B61006D0002455F8043B01349847A6421E
:10029800F9D1094E094D761B01F01CFDB61006D0A8
:1002A800002455F8043B01349847A642F9D170BDA3
:1002B8001C1D00081C1D0008241D00081C1D00082A
:1002C800024B0146186800F00BB800BF400200203E
:1002D800024B0146186800F06FBB00BF40020020C7
:1002E8002DE9F04F01F10B06162E83B0044624D8F1
:1002F800102900F2BA8000F09DFA10261822022078
:10030800B74F3A44A2F1080153688B4200F0BA8013
:100318005A68D96822F003021A449D68E9608D6022
:10032800516841F001012046516003F1080500F0D1
:1003380083FA284603B0BDE8F08F36F0070600F1CF
:100348009480B14200F2918000F074FAB6F5FC7F17
:10035800C0F09681730A00F08F80042B00F26B8145
:10036800B30903F1390003F1380CC3009C4F3B4437
:10037800A3F108055B689D4206D10CE0002980F2D4
:100388002B81DB689D4206D05A6822F00302911B3C
:100398000F29F3DD60463D69DFF848C265457CD02A
:1003A8006A6822F00302931B0F2B00F37781002B5E
:1003B800C7E904CC80F26881B2F5007F80F016812D
:1003C800D308796801334FEA521E012202FA0EF26D
:1003D8000A4357F833E0C5F808E007EBC3010839CA
:1003E800E9607A6047F83350CEF80C508310012149
:1003F8009940914257D8114206D120F00300490094
:10040800114200F10400FAD007EBC0094D468646B8
:10041800D5F80C80454508D119E1002B80F22081E0
:10042800D8F80C80454500F01281D8F8042022F055
:100438000302931B0F2BF0DD2046D8E9025408EB8A
:10044800060146F00106C8F80460EC60A56043F0B8
:100458000104C7E90411C1E902CC4C6048F8023034
:1004680000F0EAF908F1080502E00C2323600025F2
:10047800284603B0BDE8F08F4FF4007340204FF0DA
:100488003F0C73E7D3689A4208BF02307FF440AF4D
:100498003D69DFF850C1654582D17A688310012132
:1004A80099409142A7D9BD686B6823F00308464577
:1004B80003D8A8EB06030F2B7EDCDFF82C91D7F8C6
:1004C8000824D9F800300132334405EB080A00F05B
:1004D8002F8103F580530F3323F47F6B2BF00F0B21
:1004E8005946204600F0CEF9411C024600F0EF8044
:1004F800824500F2EA80D9F804105944C9F804107A
:100508000B4600F04B81D7F8081401311BBFA2EB52
:100518000A0A5344C7F80824C9F8043012F007033C
:1005280000F01281C3F108010A44C3F580519344D5
:100538000831A1EB0B01C1F30B0A51462046019289
:10054800009300F09FF9421CDDE9003200F04B8176
:10055800831A03EB0A0BD9F80400BA604BF00103C5
:100568000AEB0001BD425360C9F8041000F0228173
:10057800B8F10F0F40F220816B68A8F10C0020F051
:10058800070003F0010303436B604FF0050C2B18C1
:100598000F28C3E901CC00F22D8153681546D9F81C
:1005A8002C208A42D9F8302038BFC9F82C108A424A
:1005B80038BFC9F830108CE0AA1943F0010346F09F
:1005C80001066E602046BA60536000F035F90835C0
:1005D800284603B0BDE8F08FD9681A449DE600BFED
:1005E80070060020780600200C0D0020B2F5206F60
:1005F8004FEA522363D3142B00F2B88003F15C0155
:10060800C9005B3307EB010E7958AEF1080E8E4531
:1006180000F091804B6823F00303934202D9896864
:100628008E45F7D1D1F80CE07A68C5E9021ECEF8FC
:100638000850CD60DAE6142B59D9542B00F29E806D
:10064800330B03F16F0003F16E0CC3008EE60EF15D
:10065800010E1EF0030F05F108057FF4D9AE51E035
:10066800424445465368D8F80C1043F001035360E0
:1006780055F8083F2046D9608B6000F0DDF8F7E6B2
:10068800F00806F108023BE62A442046536843F086
:1006980001035360083500F0CFF8E9E6A9192046B0
:1006A80046F0010643F001046E60C7E90411C1E990
:1006B80002CC4C60AB5000F0BFF80835D8E693097F
:1006C80003F13901C90038339CE7BD4260D0BD68E9
:1006D8006B6823F0030B5E45ABEB060302D80F2BC8
:1006E8003FF76AAF204600F0A7F80025C0E603F1FF
:1006F8005C0003F15B0CC30038E659F808394B4538
:1007080040F0968010F0030F00F1FF30F5D17B68C0
:1007180023EA01037B60490099423FF6C4AE19B948
:10072800C1E649000EF1040E1942FAD070466BE694
:1007380003F1100BD4E69A104FF001087B6808FA11
:1007480002F21A437A6070E702EB0B014942C1F3E7
:100758000B0A514620460193009200F093F8431C7F
:10076800DDE900237FF4F4AE9A46F4E6542B26D84C
:10077800130B03F16F01C9006E3343E7B3F5AA7F8A
:1007880026D8F30B03F1780003F1770CC300EDE5ED
:10079800D9F804305B44C9F80430B4E6CAF30B0056
:1007A80000287FF4B0AEBD6808EB0B0343F00103EB
:1007B8006B60F4E61546F2E60123536092E7B3F561
:1007C800AA7F21D8D30B03F17801C900773319E741
:1007D80040F25452934221D8B30C03F17D0003F147
:1007E8007C0CC300C2E5083B9B44ABEB020B4FF00B
:1007F800000AB0E605F10801204600F0DDF8BD6802
:10080800D9F804106B68CAE640F254518B420BD8F1
:10081800930C03F17D01C9007C33F3E64FF47E733A
:100828007F204FF07E0CA1E54FF47E717E23E9E630
:100838007B6870E7704700BF704700BF024B1B68BA
:100848000022C3E92A027047400200200A4A0B49E5
:1008580010B414680A4AD4E92A0300FB02F201FB27
:100868000322A0FB0101431C42EB0100C4E92A302A
:1008780020F0004010BC7047400200202D7F954CAE
:100888002DF4515838B5074D0022044608462A6011
:1008980001F024F8431C00D038BD2B68002BFBD096
:1008A800236038BD400D0020084600F08BB900BF1A
:1008B80070B4184C2568D5F848411CB365681F2DDD
:1008C80025DC38B9AB1C0135656044F823100020DD
:1008D80070BC704704EB850C0228CCF88820D4F84B
:1008E80088614FF0010202FA05F246EA0206C4F8EE
:1008F8008861CCF80831E5D1D4F88C311343C4F8B9
:100908008C31DFE705F5A674C5F84841D6E74FF006
:10091800FF30DDE7041D0008F8B5244F0C460646F5
:10092800FFF788FFBA685568C4F57E630F3325F072
:1009380003052B4423F47F6323F00F03A3F58054AE
:10094800B4F5805F07DB00213046FFF79BFFBB68EB
:100958002B44984204D03046FFF76EFF0020F8BDC4
:1009680061423046FFF78EFF01300DD0104ABB6858
:100978002D1B45F001055D60136830461B1B136095
:10098800FFF75AFF0120F8BD00213046FFF77AFF34
:10099800BA68831A0F2BDEDD43F001035360054B61
:1009A80003491B68C01A0860D5E700BF700600201D
:1009B800100D0020780A0020002961D0F8B50C46F7
:1009C8000646FFF737FF54F8042C7B4FA4F10805BF
:1009D80022F0010105EB010CB868DCF80430604531
:1009E80023F0030300F08B80D207CCF8043032D414
:1009F80054F8082CAD1A1144AA6807F1080082427D
:100A08006AD00CEB0304D4F804E0EC68D4601EF060
:100A1800010FA26000F0978041F001036B60CCF8F1
:100A28000010B1F5007F35D27A68CB08480901215A
:100A3800013381401143796007EBC30257F8331043
:100A4800083AC5E9021247F83350CD603046BDE890
:100A5800F840FFF7F1BE0CEB03025268D00710D440
:100A6800194407F10800DCF80830834273D0DCF839
:100A78000C20DA60936041F001036B606950D0E7A5
:100A8800704741F00103B1F5007F44F8043CCCF80D
:100A98000010C9D3B1F5206F4FEA512348D28B0912
:100AA80003F1390003F13802C300F818FB5808387D
:100AB800984259D05A6822F003028A4202D99B68A8
:100AC8009842F7D1D868C5E902308560DD603046C4
:100AD800BDE8F840FFF7B0BE0CEB03025268D2073E
:100AE80063D40B44DCE90212CA60916043F001024E
:100AF8006A603046EB50BDE8F840FFF79DBE0B44F6
:100B0800D10707D454F8082CAD1A1344D5E90212BA
:100B1800CA60916043F001026A60284ABD601268A9
:100B28009A4293D8264B30461968FFF7F5FE8DE7B1
:100B3800142B0AD9542B1FD80B0B03F16F0003F1A8
:100B48006E02C300B1E719448DE703F15C0003F1BD
:100B58005B02C300A9E741F00103C7E90455C5E9F1
:100B680002006B60695071E779689210012404FAF9
:100B780002F20A437A60A6E7B3F5AA7F06D8CB0B40
:100B880003F1780003F17702C3008EE740F2545274
:100B9800934206D88B0C03F17D0003F17C02C3005D
:100BA80083E74FF47E737E227FE741F001036B6099
:100BB800CCF800104AE700BF700600207C0A00202D
:100BC8000C0D0020024B58221A604FF0FF3070477E
:100BD800400D00200020704708B501F04AF80020B9
:100BE80008BD08B501F03FF8002008BD10B504465F
:100BF80001F03DF800F012FA204601F036F800F056
:100C080015FA204601F034F8002010BD1FB5194B25
:100C18006A4603F11006154618685968144603C455
:100C28000833B3422246F7D100F05AF900F098F998
:100C380000F0D4F901F016F8284601F014F800F095
:100C48007BF80D4A10216B2000F072F80B4A102136
:100C5800702000F06DF80A4A0021782000F068F84A
:100C6800084A012312216D2000F04CF800F0D4F856
:100C7800FCE700BF081D0008EB0B0008F50B000897
:100C8800DD0B0008E10B000801207047F0B50025D6
:100C98004F1C854201DB002021E017F8154011F8B0
:100CA8001530A4F13006F6B2092E0CD81670A3F14F
:100CB8003004E6B2092E15D8137843EA04131370EA
:100CC80001350132E5E7A4F14106052E02D8373C8B
:100CD8001470ECE7A4F16106052E01D90120F0BDDE
:100CE800573CF5E7A3F14104052C02D8A3F13704DA
:100CF800E2E7A3F16104052CF0D81478573B44EAE5
:100D08000313DCE770B5094E34680F2C0BDCFF29A0
:100D180009D806EB0415C5E90212013428712B74B1
:100D28003460002070BD0120FCE700BF9C0A002051
:100D38000023FFF7E7BF000008B5074A0021762027
:100D4800FFF7F6FF054A7720FFF7F2FFBDE80840F6
:100D5800034A7920FFF7ECBF910C0008D10D000879
:100D6800AD0D0008F8B514460E4600F079F90C4FA1
:100D7800651EC4F1010463199E4204DCBDE8F84015
:100D88000A2000F06DB915F8013F1B09F85C00F066
:100D980067F92B7803F00F03F85C00F061F9EAE7D4
:100DA800F41C000807B5074B0DF107021B688DF806
:100DB800073001217220FFF7D5FF002003B05DF84E
:100DC80004FB00BF9C0A002070B5124C21688CB04F
:100DD800CDB20020C3B2AB4200F1010009DB01EB48
:100DE80041016A46C9B27220FFF7BCFF00200CB06F
:100DF80070BD03EB4302303204EB03136A441E79DF
:100E080002F8306C9E681B7C02F82F6C02F82E3CAE
:100E1800E0E700BF9C0A00202DE9F0412F4DADF519
:100E2800427D00F00BF92A46002352F8041B994230
:100E380004DC07D10DF5427DBDE8F0811C01A45CFE
:100E480084423ED105EB03141E01237CDB0714D535
:100E580000238DF8083000F0F1F88DF8080100F053
:100E6800EDF802AA8DF8090142A90120FFF70EFF4B
:100E78000028DFD19DF80830A36042AF002405EBBD
:100E88000608D8F80830B4EB430F1CD300F0D6F8A6
:100E98000A2801D00D28CDD1354402AAAC6842A950
:100EA8002046FFF7F3FE0028C4D1E1B2EB6802A8A0
:100EB800984701AA8DF8040001217A20FFF752FF14
:100EC800B8E70133B3E700F0B9F80A28B2D00D2823
:100ED800B0D007F8010B0134D3E700BF9C0A00200B
:100EE80030B5032293B04FF4A023CDE906230221A5
:100EF8004FF48003CDE90C130C20C423CDE90E0375
:100F080004240723012506A8CDE91043099500F01C
:100F1800BFF8044600B1FEE70146CDE903000F2300
:100F2800059001A8CDE9013500F052FA094B00946B
:100F38005A6B094842F040025A635B6B03F0400366
:100F48000093009B054B0360447100F0E2FC13B072
:100F580030BD00BF00380240A00B0020000806503A
:100F680030B5022389B04FF4C062CDE903230122D2
:100F7800CDE90523154C164800250723019507934D
:100F8800236B13432363236B1340019303A9019B32
:100F980000F0B6FA0F48104902954FF41643C0E91D
:100FA8000313C0E905550C23C56145620362636CF0
:100FB80043F010036364636C03F0100302930C3076
:100FC800029B00F089FB09B030BD00BF0038024029
:100FD80000000240A00B0020001001407FB50D4B1F
:100FE8000D48002100911A6B42F001021A631B6B35
:100FF800039103F001030093009B4FF480520123F7
:10100800CDE9012301A90223049300F079FA07B07E
:101018005DF804FB0038024000000240024801224B
:101028004FF4805100F052BB0000024002480022F9
:101038004FF4805100F04ABB0000024013B5074C42
:1010480041F2883301220DF10701204600F0F9FB37
:101058000028F5D19DF8070002B010BDAC0B0020A8
:1010680007B541F288338DF8070001220DF1070119
:10107800024800F0A1FB03B05DF804FBAC0B0020B4
:10108800024B1868421C1A60704700BF3C0C0020D5
:10109800036873B5DE0701463BD40B689D0700F172
:1010A8008B800B68180700F1D6800B685A072AD581
:1010B80000230193914B924C1A6C42F080521A64AF
:1010C8001B6C03F080530193019B236843F48073E6
:1010D8002360FFF7D5FF05462368D80540F1DF8078
:1010E8008B68864C012B40F0E180236F43F00103AD
:1010F8002367FFF7C5FF814D044641F288362B6F01
:101108009A0740F1F4808A69002A40F0FF800020A5
:1011180015E07A4B9A6802F00C02042A07D09A6804
:1011280002F00C02082A0CD15A68540209D5734BF4
:101138001B689803B1D54B68002BAED1012002B0D3
:1011480070BD4A68B2F5803F12D11A6842F4803205
:101158001A60FFF795FF694D6A4E04462B689A039B
:101168009BD4FFF78DFF001BB042F7D90320E6E7B9
:10117800624CB2F5A02F236807D143F48023236083
:10118800236843F480332360E3E723F48033236048
:10119800236823F480232360002ADAD1FFF770FF45
:1011A800584E054623689B037FF577AFFFF768FF26
:1011B800401BB042F6D9D9E7504B9A6812F00C0F91
:1011C80007D09A6802F00C02082A16D15B68580208
:1011D80013D44A4803689A0702D5CB68012BADD1CE
:1011E8000468F82393FAA3F3B3FA83F20B699340E4
:1011F80024F0F8021343036053E7CA68424BDAB19C
:1012080001221A60FFF73CFF3C4C054623689B0708
:101218000CD52068F82393FAA3F3B3FA83F20B6989
:10122800934020F0F802134323603AE7FFF728FFC2
:10123800401B0228EAD999E71A60FFF721FF2F4DD2
:1012480004462B689E077FF52CAFFFF719FF001B9C
:101258000228F6D98AE74A692B4B82B10122C3F8E2
:10126800802EFFF70DFF254D04466B6F9B073FF55A
:101278001CAFFFF705FF001B0228F6D976E7C3F875
:10128800802EFFF7FDFE1D4D04466B6F9E077FF510
:101298000CAFFFF7F5FE001B0228F6D966E7FFF74B
:1012A800EFFE401B02287FF617AF5FE7052B04D13E
:1012B800236F43F00403236717E7226F22F001022C
:1012C8002267226F22F004022267002B7FF411AFFD
:1012D800FFF7D6FE41F288360546236F9B077FF558
:1012E80012AFFFF7CDFE401BB042F6D93EE7FFF73D
:1012F800C7FE001BB0427FF602AF37E70038024056
:101308000070004000E1F505000047422D4CA3683D
:1013180003F00C03082B3FF411AF2B4B022A4FF0BC
:1013280000021A6640D1FFF7ABFE284E0546236837
:10133800980133D447F6C07696FAA6F64FF44032B1
:10134800B6FA86F692FAA2F24FF07060B2FA82F517
:1013580090FAA0F0D1E9073213434A6AB240134326
:101368008A6A5208013AAA401343CA6A174DB0FA6A
:1013780080F002FA00F003436360134B114C012222
:101388001A66FFF77DFE014623689A013FF5BFAE56
:10139800FFF776FE401AA842F6D9E7E6FFF770FE97
:1013A800401BB042C3D9E1E6FFF76AFE074D01468C
:1013B80023689B017FF5ABAEFFF762FE401AA84297
:1013C800F6D9D3E6003802400000474280841E0068
:1013D800F8B5494B1A6802F00F028A4204461AD33C
:1013E8002268900720D4D20726D4434B1A6802F00B
:1013F8000F028A4270D82068430775D410F008009D
:1014080011D03E4A2169936823F4604343EAC1033B
:101418009360002007E0CAB21A701B6803F00F033C
:101428008B42DDD00120F8BD3448A568836823F0DD
:10143800F0032B438360D6E76268304B012A1DD145
:101448001B6813F4003FEDD02C4DAB6823F0030369
:101458001343AB60FFF714FE6368012B064641F2A5
:10146800883715D1AB6803F00C03042BBDD0FFF708
:1014780007FE801BB842F5D90320D4E7901E012847
:101488001B6802D813F0007FDDE713F0020FDAE7DC
:10149800022B0AD1AB6803F00C03082BA5D0FFF789
:1014A800EFFD801BB842F5D9E6E7032B0FD1AB68F7
:1014B80003F00C030C2B98D0FFF7E2FD801BB84219
:1014C800F5D9D9E7FFF7DCFD801BB842D4D8AB6863
:1014D80013F00C0FF6D188E7CAB21A701B6803F034
:1014E8000F038B429ED186E70449E3688A6822F499
:1014F800E0521A438A6081E7003C0240003802400B
:101508002DE9F74FDFF8B4816D4ADFF8B891002371
:101518000C6801279F4007EA040537EA040440F0F5
:10152800B9804C6824F0100ABAF1020F16D14FEABC
:10153800D30E00EB8E0E03F0070BDEF820604FEAA7
:101548008B0B4FF00F0C0CFA0BFC26EA0C0C0E69F7
:1015580006FA0BF646EA0C06CEF82060D0F800B082
:101568004FEA430E4FF0030C0CFA0EFC2BEA0C0B5F
:101578006FEA0C0604F0030C0CFA0EFC0AF1FF3AB1
:101588004CEA0B0CBAF1010FC0F800C016D8D0F81D
:1015980008C0D1F80CA006EA0C0C0AFA0EFA4AEABE
:1015A8000C0CC0F808C0D0F804C02CEA0707C4F334
:1015B800001C0CFA03FC4CEA07074760C768374071
:1015C8008E6806FA0EF63E43C660E60062D500262F
:1015D8000196D8F8447047F48047C8F84470D8F8A2
:1015E800447007F480470197019F23F0030707F130
:1015F800804707F59C3703F0030ED7F808A04FEA99
:101608008E0E4FF00F0C0CFA0EFC2AEA0C0CDFF8C9
:10161800B8A050451DD006F1804606F50136B04207
:101628003FD006F58066B0423DD006F58066B042F0
:101638003BD006F58066B04239D0484539D006F52A
:101648000066B04237D006F58066B0420CBF072668
:10165800082606FA0EF646EA0C06BE601668EF4340
:1016680014F4803F0CBF3E402E431660566814F4B5
:10167800003F0CBF3E402E435660966814F4801F0E
:101688000CBF3E402E439660D668A40254BF3E402D
:101698002E43D6600133102B7FF43AAF03B0BDE878
:1016A800F08F0126D5E70226D3E70326D1E70426E3
:1016B800CFE70526CDE70626CBE700BF0038024076
:1016C800003C014000140240000002400AB1816160
:1016D80070470904FBE7000070B5002867D090F850
:1016E800393003F0FF020BB980F838200168C2686E
:1016F8000569C469242380F83930CB6823F4005382
:10170800CB600B6923F4405313430B618368CA68A9
:101718002B43456922F416422B4322F00C02234343
:101728001343CB604B69826923F440731343B4F5C8
:10173800004F4B611F4A43684FF0640528D15B0096
:10174800B2FBF3F2B2FBF5F605FB1622D3003233F7
:10175800B3FBF5F303F007025B0002EB061203F498
:10176800F87313448B600B6923F490430B614B6946
:1017780023F02A034B61CB6843F40053CB6020224B
:101788000023C36380F8392080F83A20184670BDDA
:101798009B00B2FBF3F2B2FBF5F605FB16231B0127
:1017A8003233B3FBF5F303EB06138B60DBE7012061
:1017B800EDE700BF906EFB0A90F83930202B3ED140
:1017C80000293AD0002A38D090F83830012B36D08A
:1017D800012380F838300023C363212380F839308F
:1017E80003688284C284C28C92B252B91A685206C3
:1017F800FCD5202380F83930002380F8383018468B
:101808007047C28C013A92B2C2848268B2F5805F96
:101818000CD11A681206FCD50A88C2F308025A606D
:1018280002690AB90231DEE70131DCE71A681206FB
:10183800FCD511F8012B5A60D5E70120704702202A
:10184800704710B590F83A30202B44D1002940D089
:10185800002A3ED090F83830012B3CD0012380F884
:1018680038300023C363222380F83A308285C2854A
:10187800C38D9BB233B9202280F83A2080F83830E3
:10188800184610BDC38D0268013B9BB2C3858368AF
:10189800B3F5805F11D113689C06FCD503695268C3
:1018A80033B90B46C2F3080223F8022B1946DFE7C7
:1018B8000B46D2B223F8012BF8E713689B06FCD538
:1018C800046952684B1C0CB90A70EFE702F07F02FA
:1018D800FAE70120D5E70220D3E700000A4A116899
:1018E80008B5034609B909491160106869460344F7
:1018F8008B4206D9FEF7A4FC0C2303604FF0FF309F
:1019080008BD1360FCE700BF400C0020480D002014
:10191800704710B50446A8B10379012B14D0437958
:1019280003F0FF0213B90271FFF7F2FF22680223E6
:101938006371136843F0040313600020012363718B
:10194800207110BD0120FCE70220FAE737B5274ACD
:1019580052F8043B03F11001187810705878507051
:1019680098789070D878D07004338B4202F10402D2
:10197800F2D11F4B1F4804211A6801928C0716D117
:10198800C2F30745C2F30724455D8DF80550150ECF
:10199800D2B2045D825C8DF8072000EB9102455DB0
:1019A80092F800218DF8065062408DF8042013F853
:1019B8000C2C9DF8044062401A719DF8054013F8FC
:1019C8000B2C62405A719DF8064013F80A2C6240AD
:1019D8009A719DF8074013F8092C013162402C29AF
:1019E800DA7103F10403C7D103B030BD440C002001
:1019F800540C002000000020F0B50E4C0E4DD4F819
:101A0800B4608000002215F8013B03F0030703F0DF
:101A1800FC0100EB930304EB830331443B4411F8CE
:101A280007C01B790132D2B283EA0C03102ACB55C6
:101A3800E9D1F0BD440C00200B0100200B4B0C49F0
:101A480070B5D3F8B4606FF48D730022CD1811F817
:101A5800013B03F0030003F0FC03334401321C5C38
:101A6800D2B22C5D1C54102AF1D170BD440C002058
:101A78001B0100204B1E01380F3113F8012F00F80D
:101A8800012F8B42F9D17047F8B54FF48070FEF7FB
:101A980017FC144BD3F8B450002303F00302C3F32C
:101AA800850100EB820405EB82020133525C62542B
:101AB800102BF2D10C4E002316F8012B02F0030470
:101AC80003F003019F08920800EB8404013305EB3F
:101AD8008101DBB2A25CCA55102BEDD1BDE8F840FC
:101AE800FEF7F6BB440C00202B02002070B5FEF771
:101AF80091FB0C4DFEF7A2FE1024A5F58D76FEF79E
:101B0800A5FEC0B2B0FBF4F304FB13003044013C63
:101B18002B7890F80B2105F80129012C80F80B315E
:101B2800EDD170BD1A0100202DE9F047FFF7DEFF67
:101B38000020FFF761FF3E4D3E4E0124FEF76AFB91
:101B4800FEF77CFEDFF8F0801027FEF77FFEC0B2BC
:101B5800B0FBF7F307FB13002844013F98F8003067
:101B680090F81B2108F80129012F80F81B31ECD1CE
:101B7800FFF764FFFFF788FFD6F8B43003F11007CA
:101B88001A78597893F80280D87882EA010A4FEADD
:101B9800DA1E88EA00090EEB4E0E8AEA090C0EEBF3
:101BA800CE0E8EEA4A0E82EA0C0A8EEA0A0E81EA04
:101BB800080A83F800E04FEADA1E0EEB4E0E0EEB31
:101BC800CE0E81EA0C018EEA4A0E8EEA010E4FEA29
:101BD800D91101EB410101EBC10181EA490188EA10
:101BE8000C0881EA0801997082EA0001CA0902EB2F
:101BF800420202EBC20282EA410280EA0C00424041
:101C080083F801E0DA7004339F42B9D1FFF76EFF21
:101C180020460134E4B2FFF7EFFE0A2C8ED1FFF71D
:101C28000DFFFFF731FF2046BDE8F047FFF7E4BEA0
:101C380000000020440C00202A010020014B1860FD
:101C4800FFF784BE440C002008B501460448C0F8DC
:101C5800B410B830FFF70EFFBDE80840FFF764BFC7
:101C6800440C00207047FFF7E9BFFFF7EDBF70474E
:101C780070477047002103E00B4B5B584350043119
:101C88000A480B4B42189A42F6D30A4A02E000234C
:101C980013600432084B9A42F9D3AFF30080FEF781
:101CA800EBFAFEF7B3FFFEE7281D0008000000204E
:101CB800800A0020800A0020440D0020FEE7000072
:101CC800024B13B10248FEF79FBA704700000000AC
:101CD80055020008F8B500BFF8BC08BC9E4670471E
:0C1CE800F8B500BFF8BC08BC9E46704771
:101CF400303132333435363738394142434445463E
:101D0400480200202B7E151628AED2A6ABF7158804
:081D140009CF4F3C0000000064
:081D1C00C91C0008F1010008D8
:041D2400C9010008E9
:101D2800637C777BF26B6FC53001672BFED7AB7690
:101D3800CA82C97DFA5947F0ADD4A2AF9CA472C03B
:101D4800B7FD9326363FF7CC34A5E5F171D83115A8
:101D580004C723C31896059A071280E2EB27B275C9
:101D680009832C1A1B6E5AA0523BD6B329E32F8441
:101D780053D100ED20FCB15B6ACBBE394A4C58CF39
:101D8800D0EFAAFB434D338545F9027F503C9FA80D
:101D980051A3408F929D38F5BCB6DA2110FFF3D2DB
:101DA800CD0C13EC5F974417C4A77E3D645D19738F
:101DB80060814FDC222A908846EEB814DE5E0BDB89
:101DC800E0323A0A4906245CC2D3AC629195E479C0
:101DD800E7C8376D8DD54EA96C56F4EA657AAE081A
:101DE800BA78252E1CA6B4C6E8DD741F4BBD8B8AB5
:101DF800703EB5664803F60E613557B986C11D9E1B
:101E0800E1F8981169D98E949B1E87E9CE5528DF91
:101E18008CA1890DBFE6426841992D0FB054BB16BD
:101E28008D01020408102040801B360001020304C3
:101E380005060708090A0B0C0D0E0F000102030422
:101E480005060708090A0B0C0D0E0F52096AD53052
:101E580036A538BF40A39E81F3D7FB7CE339829B2C
:101E68002FFF87348E4344C4DEE9CB547B9432A6DB
:101E7800C2233DEE4C950B42FAC34E082EA16628AC
:101E8800D924B2765BA2496D8BD12572F8F66486A7
:101E9800689816D4A45CCC5D65B6926C704850FD09
:101EA800EDB9DA5E154657A78D9D8490D8AB008CA6
:101EB800BCD30AF7E45805B8B34506D02C1E8FCA20
:101EC8003F0F02C1AFBD0301138A6B3A9111414F15
:101ED80067DCEA97F2CFCEF0B4E67396AC7422E7EB
:101EE800AD3585E2F937E81C75DF6E47F11A711DCB
:101EF80029C5896FB7620EAA18BE1BFC563E4BC691
:101F0800D279209ADBC0FE78CD5AF41FDDA8338839
:101F180007C731B11210592780EC5F60517FA919AA
:101F2800B54A0D2DE57A9F93C99CEFA0E03B4DAED5
:101F38002AF5B0C8EBBB3C83539961172B047EBAD2
:101F480077D626E169146355210C7D00010203054B
:101F58000607040A0B08090F0C0D0E00000000000C
:101F680048020020000000000000000034050020A6
:101F78009C0500200406002000000000000000006E
:101F88000000000000000000000000000000000049
:101F98000000000000000000000000000000000039
:101FA8000000000000000000000000000000000029
:101FB8000000000000000000000000000000000019
:101FC8000000000000000000000000000000000009
:101FD80000000000000000000000000000000000F9
:101FE80000000000000000000000000000000000E9
:101FF80000000000000000000000000000000000D9
:1020080000000000000000000000000000000000C8
:1020180001000000000000000E33CDAB34126DE665
:10202800ECDE05000B0000000000000000000000CE
:102038000000000000000000000000000000000098
:102048000000000000000000000000000000000088
:102058000000000000000000000000000000000078
:102068000000000000000000000000000000000068
:102398000000000000000000700600207006002009
:1023A800780600207806002080060020800600209D
:1023B800880600208806002090060020900600204D
:1023C8009806002098060020A0060020A0060020FD
:1023D800A8060020A8060020B0060020B0060020AD
:1023E800B8060020B8060020C0060020C00600205D
:1023F800C8060020C8060020D0060020D00600200D
:10240800D8060020D8060020E0060020E0060020BC
:10241800E8060020E8060020F0060020F00600206C
:10242800F8060020F806002000070020000700201A
:1024380008070020080700201007002010070020C8
:102448001807002018070020200700202007002078
:102458002807002028070020300700203007002028
:1024680038070020380700204007002040070020D8
:102478004807002048070020500700205007002088
:102488005807002058070020600700206007002038
:1024980068070020680700207007002070070020E8
:1024A8007807002078070020800700208007002098
:1024B8008807002088070020900700209007002048
:1024C8009807002098070020A0070020A0070020F8
:1024D800A8070020A8070020B0070020B0070020A8
:1024E800B8070020B8070020C0070020C007002058
:1024F800C8070020C8070020D0070020D007002008
:10250800D8070020D8070020E0070020E0070020B7
:10251800E8070020E8070020F0070020F007002067
:10252800F8070020F8070020000800200008002015
:1025380008080020080800201008002010080020C3
:102548001808002018080020200800202008002073
:102558002808002028080020300800203008002023
:1025680038080020380800204008002040080020D3
:102578004808002048080020500800205008002083
:102588005808002058080020600800206008002033
:1025980068080020680800207008002070080020E3
:1025A8007808002078080020800800208008002093
:1025B8008808002088080020900800209008002043
:1025C8009808002098080020A0080020A0080020F3
:1025D800A8080020A8080020B0080020B0080020A3
:1025E800B8080020B8080020C0080020C008002053
:1025F800C8080020C8080020D0080020D008002003
:10260800D8080020D8080020E0080020E0080020B2
:10261800E8080020E8080020F0080020F008002062
:10262800F8080020F8080020000900200009002010
:1026380008090020080900201009002010090020BE
:10264800180900201809002020090020200900206E
:10265800280900202809002030090020300900201E
:1026680038090020380900204009002040090020CE
:10267800480900204809002050090020500900207E
:10268800580900205809002060090020600900202E
:1026980068090020680900207009002070090020DE
:1026A800780900207809002080090020800900208E
:1026B800880900208809002090090020900900203E
:1026C8009809002098090020A0090020A0090020EE
:1026D800A8090020A8090020B0090020B00900209E
:1026E800B8090020B8090020C0090020C00900204E
:1026F800C8090020C8090020D0090020D0090020FE
:10270800D8090020D8090020E0090020E0090020AD
:10271800E8090020E8090020F0090020F00900205D
:10272800F8090020F8090020000A0020000A00200B
:10273800080A0020080A0020100A0020100A0020B9
:10274800180A0020180A0020200A0020200A002069
:10275800280A0020280A0020300A0020300A002019
:10276800380A0020380A0020400A0020400A0020C9
:10277800480A0020480A0020500A0020500A002079
:10278800580A0020580A0020600A0020600A002029
:10279800680A0020680A0020FFFFFFFF000002000F
:0400000508001C7D56
:00000001FF
