:020000040800F2
:1000000000000220F10F0008391000083910000824
:1000100039100008391000083910000800000000ED
:10002000000000000000000000000000391000087F
:1000300039100008000000003910000839100008CD
:1000400000000000000000000000000000000000B0
:1000500000000000000000000000000000000000A0
:100060000000000000000000000000000000000090
:100070000000000000000000000000000000000080
:100080000000000000000000000000000000000070
:100090000000000000000000000000000000000060
:1000A0000000000000000000000000000000000050
:1000B0000000000000000000000000000000000040
:1000C0000000000000000000000000000000000030
:1000D0000000000000000000000000000000000020
:1000E0000000000000000000000000000000000010
:1000F0000000000000000000000000000000000000
:1001000000000000000000000000000000000000EF
:1001100000000000000000000000000000000000DF
:1001200000000000000000000000000000000000CF
:1001300000000000000000000000000000000000BF
:1001400000000000000000000000000000000000AF
:10015000000000000000000000000000000000009F
:10016000000000000000000000000000000000008F
:10017000000000000000000000000000000000007F
:08018000000000000000000077
:100188000348044B834202D0034B03B1184770471E
:100198003004002030040020000000000548064913
:1001A8000B1AD90F01EBA301491002D0034B03B17D
:1001B8001847704730040020300400200000000079
:1001C80010B5064C237843B9FFF7DAFF044B13B197
:1001D8000448AFF300800123237010BD30040020D1
:1001E800000000005010000808B5044B1BB104497A
:1001F8000448AFF30080BDE80840CFE700000000E6
:100208003404002050100008002301461A461846FE
:1002180000F03AB838B5084B084D5B1B9C1007D066
:10022800043B1D44013C55F804399847002CF9D18A
:10023800BDE8384000F00EBF8810000884100008A0
:1002480070B50D4E0D4D761BB61006D0002455F82E
:10025800043B01349847A642F9D1094E094D761B53
:1002680000F0F2FEB61006D0002455F8043B013425
:100278009847A642F9D170BD7C1000087C10000890
:10028800841000087C10000870B4184C2568D5F854
:1002980048411CB365681F2D25DC38B9AB1C0135F6
:1002A800656044F82310002070BC704704EB850C8F
:1002B8000228CCF88820D4F888614FF0010202FAAD
:1002C80005F246EA0206C4F88861CCF80831E5D19F
:1002D800D4F88C311343C4F88C31DFE705F5A674E4
:1002E800C5F84841D6E74FF0FF30DDE77810000841
:1002F8000020704710B5044600F0F8F900F0FEF948
:1003080022461021722000F095F8002010BD002030
:100318007047000008B500F04BF900F089F900F0CB
:10032800C5F900F071F8094A1021702000F068F84A
:10033800074A10216B2000F063F8064A0021782054
:1003480000F05EF800F0D0F8FCE700BFFD020008FE
:10035800F90200081703000801207047F0B50025CE
:100368004F1C854201DB002021E017F8154011F8E9
:100378001530A4F13006F6B2092E0CD81670A3F188
:100388003004E6B2092E15D8137843EA0413137023
:1003980001350132E5E7A4F14106052E02D8373CC4
:1003A8001470ECE7A4F16106052E01D90120F0BD17
:1003B800573CF5E7A3F14104052C02D8A3F1370413
:1003C800E2E7A3F16104052CF0D81478573B44EA1E
:1003D8000313DCE770B5094E34680F2C0BDCFF29DA
:1003E80009D806EB0415C5E90212013428712B74EB
:1003F8003460002070BD0120FCE700BF4C040020E1
:100408000023FFF7E7BF000008B5074A0021762060
:10041800FFF7F6FF054A7720FFF7F2FFBDE808402F
:10042800034A7920FFF7ECBF61030008A104000824
:100438007D040008F8B514460E4600F079F90C4F13
:10044800651EC4F1010463199E4204DCBDE8F8404E
:100458000A2000F06DB915F8013F1B09F85C00F09F
:1004680067F92B7803F00F03F85C00F061F9EAE70D
:100478006810000807B5074B0DF107021B688DF8D7
:10048800073001217220FFF7D5FF002003B05DF887
:1004980004FB00BF4C04002070B5124C21688CB0DE
:1004A800CDB20020C3B2AB4200F1010009DB01EB81
:1004B80041016A46C9B27220FFF7BCFF00200CB0A8
:1004C80070BD03EB4302303204EB03136A441E7918
:1004D80002F8306C9E681B7C02F82F6C02F82E3CE8
:1004E800E0E700BF4C0400202DE9F0412F4DADF5A9
:1004F800427D00F00BF92A46002352F8041B99426A
:1005080004DC07D10DF5427DBDE8F0811C01A45C37
:1005180084423ED105EB03141E01237CDB0714D56E
:1005280000238DF8083000F0F1F88DF8080100F08C
:10053800EDF802AA8DF8090142A90120FFF70EFF84
:100548000028DFD19DF80830A36042AF002405EBF6
:100558000608D8F80830B4EB430F1CD300F0D6F8DF
:100568000A2801D00D28CDD1354402AAAC6842A989
:100578002046FFF7F3FE0028C4D1E1B2EB6802A8D9
:10058800984701AA8DF8040001217A20FFF752FF4D
:10059800B8E70133B3E700F0B9F80A28B2D00D285C
:1005A800B0D007F8010B0134D3E700BF4C0400209A
:1005B80030B5032293B04FF4A023CDE906230221DE
:1005C8004FF48003CDE90C130C20C423CDE90E03AE
:1005D80004240723012506A8CDE91043099500F056
:1005E800BFF8044600B1FEE70146CDE903000F233A
:1005F800059001A8CDE9013500F052FA094B0094A5
:100608005A6B094842F040025A635B6B03F040039F
:100618000093009B054B0360447100F0C7FC13B0C6
:1006280030BD00BF003802405005002000080650C9
:1006380030B5022389B04FF4C062CDE9032301220B
:10064800CDE90523154C1648002507230195079386
:10065800236B13432363236B1340019303A9019B6B
:1006680000F0B6FA0F48104902954FF41643C0E956
:100678000313C0E905550C23C56145620362636C29
:1006880043F010036364636C03F0100302930C30AF
:10069800029B00F089FB09B030BD00BF0038024062
:1006A8000000024050050020001001407FB50D4BAE
:1006B8000D48002100911A6B42F001021A631B6B6E
:1006C800039103F001030093009B4FF48052012330
:1006D800CDE9012301A90223049300F079FA07B0B8
:1006E8005DF804FB00380240000002400248012285
:1006F8004FF4805100F052BB000002400248002233
:100708004FF4805100F04ABB0000024013B5074C7B
:1007180041F2883301220DF10701204600F0F9FB70
:100728000028F5D19DF8070002B010BD5C05002037
:1007380007B541F288338DF8070001220DF1070152
:10074800024800F0A1FB03B05DF804FB5C05002043
:10075800024B1868421C1A60704700BFEC05002065
:10076800036873B5DE0701463BD40B689D0700F1AB
:100778008B800B68180700F1D6800B685A072AD5BA
:1007880000230193914B924C1A6C42F080521A64E8
:100798001B6C03F080530193019B236843F480731F
:1007A8002360FFF7D5FF05462368D80540F1DF80B1
:1007B8008B68864C012B40F0E180236F43F00103E6
:1007C8002367FFF7C5FF814D044641F288362B6F3A
:1007D8009A0740F1F4808A69002A40F0FF800020DF
:1007E80015E07A4B9A6802F00C02042A07D09A683E
:1007F80002F00C02082A0CD15A68540209D5734B2E
:100808001B689803B1D54B68002BAED1012002B00C
:1008180070BD4A68B2F5803F12D11A6842F480323E
:100828001A60FFF795FF694D6A4E04462B689A03D4
:100838009BD4FFF78DFF001BB042F7D90320E6E7F2
:10084800624CB2F5A02F236807D143F480232360BC
:10085800236843F480332360E3E723F48033236081
:10086800236823F480232360002ADAD1FFF770FF7E
:10087800584E054623689B037FF577AFFFF768FF5F
:10088800401BB042F6D9D9E7504B9A6812F00C0FCA
:1008980007D09A6802F00C02082A16D15B68580241
:1008A80013D44A4803689A0702D5CB68012BADD107
:1008B8000468F82393FAA3F3B3FA83F20B6993401D
:1008C80024F0F8021343036053E7CA68424BDAB1D5
:1008D80001221A60FFF73CFF3C4C054623689B0742
:1008E8000CD52068F82393FAA3F3B3FA83F20B69C3
:1008F800934020F0F802134323603AE7FFF728FFFC
:10090800401B0228EAD999E71A60FFF721FF2F4D0B
:1009180004462B689E077FF52CAFFFF719FF001BD5
:100928000228F6D98AE74A692B4B82B10122C3F81B
:10093800802EFFF70DFF254D04466B6F9B073FF593
:100948001CAFFFF705FF001B0228F6D976E7C3F8AE
:10095800802EFFF7FDFE1D4D04466B6F9E077FF549
:100968000CAFFFF7F5FE001B0228F6D966E7FFF784
:10097800EFFE401B02287FF617AF5FE7052B04D177
:10098800236F43F00403236717E7226F22F0010265
:100998002267226F22F004022267002B7FF411AF36
:1009A800FFF7D6FE41F288360546236F9B077FF591
:1009B80012AFFFF7CDFE401BB042F6D93EE7FFF776
:1009C800C7FE001BB0427FF602AF37E7003802408F
:1009D8000070004000E1F505000047422D4CA36877
:1009E80003F00C03082B3FF411AF2B4B022A4FF0F6
:1009F80000021A6640D1FFF7ABFE284E0546236871
:100A0800980133D447F6C07696FAA6F64FF44032EA
:100A1800B6FA86F692FAA2F24FF07060B2FA82F550
:100A280090FAA0F0D1E9073213434A6AB24013435F
:100A38008A6A5208013AAA401343CA6A174DB0FAA3
:100A480080F002FA00F003436360134B114C01225B
:100A58001A66FFF77DFE014623689A013FF5BFAE8F
:100A6800FFF776FE401AA842F6D9E7E6FFF770FED0
:100A7800401BB042C3D9E1E6FFF76AFE074D0146C5
:100A880023689B017FF5ABAEFFF762FE401AA842D0
:100A9800F6D9D3E6003802400000474280841E00A1
:100AA800F8B5494B1A6802F00F028A4204461AD375
:100AB8002268900720D4D20726D4434B1A6802F044
:100AC8000F028A4270D82068430775D410F00800D6
:100AD80011D03E4A2169936823F4604343EAC10375
:100AE8009360002007E0CAB21A701B6803F00F0376
:100AF8008B42DDD00120F8BD3448A568836823F017
:100B0800F0032B438360D6E76268304B012A1DD17E
:100B18001B6813F4003FEDD02C4DAB6823F00303A2
:100B28001343AB60FFF714FE6368012B064641F2DE
:100B3800883715D1AB6803F00C03042BBDD0FFF741
:100B480007FE801BB842F5D90320D4E7901E012880
:100B58001B6802D813F0007FDDE713F0020FDAE715
:100B6800022B0AD1AB6803F00C03082BA5D0FFF7C2
:100B7800EFFD801BB842F5D9E6E7032B0FD1AB6830
:100B880003F00C030C2B98D0FFF7E2FD801BB84252
:100B9800F5D9D9E7FFF7DCFD801BB842D4D8AB689C
:100BA80013F00C0FF6D188E7CAB21A701B6803F06D
:100BB8000F038B429ED186E70449E3688A6822F4D2
:100BC800E0521A438A6081E7003C02400038024044
:100BD8002DE9F74FDFF8B4816D4ADFF8B8910023AB
:100BE8000C6801279F4007EA040537EA040440F02F
:100BF800B9804C6824F0100ABAF1020F16D14FEAF6
:100C0800D30E00EB8E0E03F0070BDEF820604FEAE0
:100C18008B0B4FF00F0C0CFA0BFC26EA0C0C0E6930
:100C280006FA0BF646EA0C06CEF82060D0F800B0BB
:100C38004FEA430E4FF0030C0CFA0EFC2BEA0C0B98
:100C48006FEA0C0604F0030C0CFA0EFC0AF1FF3AEA
:100C58004CEA0B0CBAF1010FC0F800C016D8D0F856
:100C680008C0D1F80CA006EA0C0C0AFA0EFA4AEAF7
:100C78000C0CC0F808C0D0F804C02CEA0707C4F36D
:100C8800001C0CFA03FC4CEA07074760C7683740AA
:100C98008E6806FA0EF63E43C660E60062D5002668
:100CA8000196D8F8447047F48047C8F84470D8F8DB
:100CB800447007F480470197019F23F0030707F169
:100CC800804707F59C3703F0030ED7F808A04FEAD2
:100CD8008E0E4FF00F0C0CFA0EFC2AEA0C0CDFF803
:100CE800B8A050451DD006F1804606F50136B04241
:100CF8003FD006F58066B0423DD006F58066B0422A
:100D08003BD006F58066B04239D0484539D006F563
:100D18000066B04237D006F58066B0420CBF0726A1
:100D2800082606FA0EF646EA0C06BE601668EF4379
:100D380014F4803F0CBF3E402E431660566814F4EE
:100D4800003F0CBF3E402E435660966814F4801F47
:100D58000CBF3E402E439660D668A40254BF3E4066
:100D68002E43D6600133102B7FF43AAF03B0BDE8B1
:100D7800F08F0126D5E70226D3E70326D1E704261C
:100D8800CFE70526CDE70626CBE700BF00380240AF
:100D9800003C014000140240000002400AB1816199
:100DA80070470904FBE7000070B5002867D090F889
:100DB800393003F0FF020BB980F838200168C268A7
:100DC8000569C469242380F83930CB6823F40053BB
:100DD800CB600B6923F4405313430B618368CA68E3
:100DE8002B43456922F416422B4322F00C0223437D
:100DF8001343CB604B69826923F440731343B4F502
:100E0800004F4B611F4A43684FF0640528D15B00CF
:100E1800B2FBF3F2B2FBF5F605FB1622D300323330
:100E2800B3FBF5F303F007025B0002EB061203F4D1
:100E3800F87313448B600B6923F490430B614B697F
:100E480023F02A034B61CB6843F40053CB60202284
:100E58000023C36380F8392080F83A20184670BD13
:100E68009B00B2FBF3F2B2FBF5F605FB16231B0160
:100E78003233B3FBF5F303EB06138B60DBE701209A
:100E8800EDE700BF906EFB0A90F83930202B3ED179
:100E980000293AD0002A38D090F83830012B36D0C3
:100EA800012380F838300023C363212380F83930C8
:100EB80003688284C284C28C92B252B91A685206FC
:100EC800FCD5202380F83930002380F838301846C4
:100ED8007047C28C013A92B2C2848268B2F5805FD0
:100EE8000CD11A681206FCD50A88C2F308025A60A7
:100EF80002690AB90231DEE70131DCE71A68120635
:100F0800FCD511F8012B5A60D5E701207047022063
:100F1800704710B590F83A30202B44D1002940D0C2
:100F2800002A3ED090F83830012B3CD0012380F8BD
:100F380038300023C363222380F83A308285C28583
:100F4800C38D9BB233B9202280F83A2080F838301C
:100F5800184610BDC38D0268013B9BB2C3858368E8
:100F6800B3F5805F11D113689C06FCD503695268FC
:100F780033B90B46C2F3080223F8022B1946DFE700
:100F88000B46D2B223F8012BF8E713689B06FCD571
:100F9800046952684B1C0CB90A70EFE702F07F0233
:100FA800FAE70120D5E70220D3E7704710B50446D9
:100FB800A8B10379012B14D0437903F0FF0213B9C8
:100FC8000271FFF7F2FF226802236371136843F08E
:100FD80004031360002001236371207110BD0120F8
:100FE800FCE70220FAE70000002103E00B4B5B5806
:100FF800435004310A480B4B42189A42F6D30A4A26
:1010080002E0002313600432084B9A42F9D3AFF38D
:101018000080FFF715F9FFF77DF9FEE78810000853
:10102800000000203004002030040020F0050020DB
:10103800FEE70000024B13B10248FFF7E5B870471E
:10104800000000001D020008F8B500BFF8BC08BC8D
:101058009E467047F8B500BFF8BC08BC9E4670476E
:1010680030313233343536373839414243444546D6
:04107800080000204C
:08107C003D100008F10100081D
:04108400C901000896
:10108800080000200000000000000000F40200201A
:101098005C030020C40300200000000000000000E2
:1010A8000000000000000000000000000000000038
:1010B8000000000000000000000000000000000028
:1010C8000000000000000000000000000000000018
:1010D8000000000000000000000000000000000008
:1010E80000000000000000000000000000000000F8
:1010F80000000000000000000000000000000000E8
:1011080000000000000000000000000000000000D7
:1011180000000000000000000000000000000000C7
:1011280000000000000000000000000000000000B7
:1011380001000000000000000E33CDAB34126DE654
:10114800ECDE05000B0000000000000000000000BD
:101158000000000000000000000000000000000087
:101168000000000000000000000000000000000077
:101178000000000000000000000000000000000067
:101188000000000000000000000000000000000057
:0400000508000FF1EF
:00000001FF
